{
  "_format": "hh-sol-artifact-1",
  "contractName": "IPFSFileTracker",
  "sourceName": "contracts/IPFSFileTracker.sol",
  "abi": [
    {
      "inputs": [],
      "stateMutability": "nonpayable",
      "type": "constructor"
    },
    {
      "inputs": [],
      "name": "EmptyCID",
      "type": "error"
    },
    {
      "inputs": [],
      "name": "EmptyFileName",
      "type": "error"
    },
    {
      "inputs": [
        {
          "internalType": "string",
          "name": "cid",
          "type": "string"
        }
      ],
      "name": "FileNotFound",
      "type": "error"
    },
    {
      "inputs": [
        {
          "internalType": "address",
          "name": "caller",
          "type": "address"
        }
      ],
      "name": "UnauthorizedAccess",
      "type": "error"
    },
    {
      "anonymous": false,
      "inputs": [
        {
          "indexed": true,
          "internalType": "bytes32",
          "name": "fileId",
          "type": "bytes32"
        },
        {
          "indexed": false,
          "internalType": "enum IPFSFileTracker.Action",
          "name": "action",
          "type": "uint8"
        },
        {
          "indexed": false,
          "internalType": "string",
          "name": "cid",
          "type": "string"
        },
        {
          "indexed": false,
          "internalType": "enum IPFSFileTracker.FileType",
          "name": "fileType",
          "type": "uint8"
        },
        {
          "indexed": false,
          "internalType": "string",
          "name": "fileName",
          "type": "string"
        },
        {
          "indexed": false,
          "internalType": "uint256",
          "name": "timestamp",
          "type": "uint256"
        },
        {
          "indexed": false,
          "internalType": "bytes32",
          "name": "blockHash",
          "type": "bytes32"
        }
      ],
      "name": "FileActionRecorded",
      "type": "event"
    },
    {
      "inputs": [
        {
          "internalType": "bytes32",
          "name": "_fileId",
          "type": "bytes32"
        }
      ],
      "name": "getFileReference",
      "outputs": [
        {
          "components": [
            {
              "internalType": "bytes32",
              "name": "fileId",
              "type": "bytes32"
            },
            {
              "internalType": "string",
              "name": "cid",
              "type": "string"
            },
            {
              "internalType": "enum IPFSFileTracker.Action",
              "name": "action",
              "type": "uint8"
            },
            {
              "internalType": "enum IPFSFileTracker.FileType",
              "name": "fileType",
              "type": "uint8"
            },
            {
              "internalType": "string",
              "name": "fileName",
              "type": "string"
            },
            {
              "internalType": "uint256",
              "name": "timestamp",
              "type": "uint256"
            },
            {
              "internalType": "bytes32",
              "name": "blockHash",
              "type": "bytes32"
            },
            {
              "internalType": "bool",
              "name": "exists",
              "type": "bool"
            }
          ],
          "internalType": "struct IPFSFileTracker.FileReference",
          "name": "",
          "type": "tuple"
        }
      ],
      "stateMutability": "view",
      "type": "function"
    },
    {
      "inputs": [
        {
          "internalType": "string",
          "name": "_cid",
          "type": "string"
        }
      ],
      "name": "getLatestFileReference",
      "outputs": [
        {
          "components": [
            {
              "internalType": "bytes32",
              "name": "fileId",
              "type": "bytes32"
            },
            {
              "internalType": "string",
              "name": "cid",
              "type": "string"
            },
            {
              "internalType": "enum IPFSFileTracker.Action",
              "name": "action",
              "type": "uint8"
            },
            {
              "internalType": "enum IPFSFileTracker.FileType",
              "name": "fileType",
              "type": "uint8"
            },
            {
              "internalType": "string",
              "name": "fileName",
              "type": "string"
            },
            {
              "internalType": "uint256",
              "name": "timestamp",
              "type": "uint256"
            },
            {
              "internalType": "bytes32",
              "name": "blockHash",
              "type": "bytes32"
            },
            {
              "internalType": "bool",
              "name": "exists",
              "type": "bool"
            }
          ],
          "internalType": "struct IPFSFileTracker.FileReference",
          "name": "",
          "type": "tuple"
        }
      ],
      "stateMutability": "view",
      "type": "function"
    },
    {
      "inputs": [],
      "name": "getOwner",
      "outputs": [
        {
          "internalType": "address",
          "name": "",
          "type": "address"
        }
      ],
      "stateMutability": "view",
      "type": "function"
    },
    {
      "inputs": [
        {
          "internalType": "string",
          "name": "_cid",
          "type": "string"
        },
        {
          "internalType": "enum IPFSFileTracker.Action",
          "name": "_action",
          "type": "uint8"
        },
        {
          "internalType": "enum IPFSFileTracker.FileType",
          "name": "_fileType",
          "type": "uint8"
        },
        {
          "internalType": "string",
          "name": "_fileName",
          "type": "string"
        }
      ],
      "name": "recordFileAction",
      "outputs": [],
      "stateMutability": "nonpayable",
      "type": "function"
    }
  ],
  "bytecode": "0x60a0604052348015600f57600080fd5b5033608052608051610e456100436000396000818160bb01528181610146015281816103b201526106730152610e456000f3fe608060405234801561001057600080fd5b506004361061004b5760003560e01c8062c9962a1461005057806307c732a9146100795780634a0de3701461008e578063893d20e8146100a1575b600080fd5b61006361005e36600461091b565b6100e5565b60405161007091906109be565b60405180910390f35b61008c610087366004610afc565b61039a565b005b61006361009c366004610b92565b610612565b60405173ffffffffffffffffffffffffffffffffffffffff7f0000000000000000000000000000000000000000000000000000000000000000168152602001610070565b61012e6040805161010081018252600080825260606020830152909182019081526020016000815260606020820181905260006040830181905290820181905260809091015290565b3373ffffffffffffffffffffffffffffffffffffffff7f0000000000000000000000000000000000000000000000000000000000000000161461018b57604051633733be5960e21b81523360048201526024015b60405180910390fd5b600080600084815260200190815260200160002060405180610100016040529081600082015481526020016001820180546101c590610bcf565b80601f01602080910402602001604051908101604052809291908181526020018280546101f190610bcf565b801561023e5780601f106102135761010080835404028352916020019161023e565b820191906000526020600020905b81548152906001019060200180831161022157829003601f168201915b5050509183525050600282015460209091019060ff16600381111561026557610265610984565b600381111561027657610276610984565b81526020016002820160019054906101000a900460ff16600181111561029e5761029e610984565b60018111156102af576102af610984565b81526020016003820180546102c390610bcf565b80601f01602080910402602001604051908101604052809291908181526020018280546102ef90610bcf565b801561033c5780601f106103115761010080835404028352916020019161033c565b820191906000526020600020905b81548152906001019060200180831161031f57829003601f168201915b5050509183525050600482015460208201526005820154604082015260069091015460ff16151560609091015260e0810151909150610394578060200151604051630b5d665f60e31b81526004016101829190610c09565b92915050565b3373ffffffffffffffffffffffffffffffffffffffff7f000000000000000000000000000000000000000000000000000000000000000016146103f257604051633733be5960e21b8152336004820152602401610182565b835160000361042d576040517f63ee91d000000000000000000000000000000000000000000000000000000000815260040160405180910390fd5b8051600003610468576040517ff921971d00000000000000000000000000000000000000000000000000000000815260040160405180910390fd5b426000610476600143610c23565b40905060006104868784886108d4565b90506040518061010001604052808281526020018881526020018760038111156104b2576104b2610984565b81526020018660018111156104c9576104c9610984565b81526020808201879052604080830187905260608301869052600160809093018390526000858152808352208351815590830151909182019061050c9082610c93565b50604082015160028201805460ff1916600183600381111561053057610530610984565b0217905550606082015160028201805461ff00191661010083600181111561055a5761055a610984565b0217905550608082015160038201906105739082610c93565b5060a0820151600482015560c0820151600582015560e0909101516006909101805460ff191691151591909117905560405181906001906105b5908a90610d52565b908152602001604051809103902081905550807fe2d3d548048fbd5fb6210778abb7330e4ed6ef43c1812f775e910e55fc5b9cc687898888888860405161060196959493929190610d6e565b60405180910390a250505050505050565b61065b6040805161010081018252600080825260606020830152909182019081526020016000815260606020820181905260006040830181905290820181905260809091015290565b3373ffffffffffffffffffffffffffffffffffffffff7f000000000000000000000000000000000000000000000000000000000000000016146106b357604051633733be5960e21b8152336004820152602401610182565b60006001836040516106c59190610d52565b908152604051908190036020019020549050806106f75782604051630b5d665f60e31b81526004016101829190610c09565b600081815260208181526040918290208251610100810190935280548352600181018054919284019161072990610bcf565b80601f016020809104026020016040519081016040528092919081815260200182805461075590610bcf565b80156107a25780601f10610777576101008083540402835291602001916107a2565b820191906000526020600020905b81548152906001019060200180831161078557829003601f168201915b5050509183525050600282015460209091019060ff1660038111156107c9576107c9610984565b60038111156107da576107da610984565b81526020016002820160019054906101000a900460ff16600181111561080257610802610984565b600181111561081357610813610984565b815260200160038201805461082790610bcf565b80601f016020809104026020016040519081016040528092919081815260200182805461085390610bcf565b80156108a05780601f10610875576101008083540402835291602001916108a0565b820191906000526020600020905b81548152906001019060200180831161088357829003601f168201915b5050509183525050600482015460208201526005820154604082015260069091015460ff1615156060909101529392505050565b600083838360038111156108ea576108ea610984565b6040516020016108fc93929190610dc3565b6040516020818303038152906040528051906020012090509392505050565b60006020828403121561092d57600080fd5b5035919050565b60005b8381101561094f578181015183820152602001610937565b50506000910152565b60008151808452610970816020860160208601610934565b601f01601f19169290920160200192915050565b634e487b7160e01b600052602160045260246000fd5b600481106109aa576109aa610984565b9052565b600281106109aa576109aa610984565b60208152815160208201526000602083015161010060408401526109e6610120840182610958565b905060408401516109fa606085018261099a565b506060840151610a0d60808501826109ae565b506080840151838203601f190160a0850152610a298282610958565b91505060a084015160c084015260c084015160e084015260e084015115156101008401528091505092915050565b634e487b7160e01b600052604160045260246000fd5b600082601f830112610a7e57600080fd5b813567ffffffffffffffff811115610a9857610a98610a57565b604051601f8201601f19908116603f0116810167ffffffffffffffff81118282101715610ac757610ac7610a57565b604052818152838201602001851015610adf57600080fd5b816020850160208301376000918101602001919091529392505050565b60008060008060808587031215610b1257600080fd5b843567ffffffffffffffff811115610b2957600080fd5b610b3587828801610a6d565b945050602085013560048110610b4a57600080fd5b9250604085013560028110610b5e57600080fd5b9150606085013567ffffffffffffffff811115610b7a57600080fd5b610b8687828801610a6d565b91505092959194509250565b600060208284031215610ba457600080fd5b813567ffffffffffffffff811115610bbb57600080fd5b610bc784828501610a6d565b949350505050565b600181811c90821680610be357607f821691505b602082108103610c0357634e487b7160e01b600052602260045260246000fd5b50919050565b602081526000610c1c6020830184610958565b9392505050565b8181038181111561039457634e487b7160e01b600052601160045260246000fd5b601f821115610c8e57806000526020600020601f840160051c81016020851015610c6b5750805b601f840160051c820191505b81811015610c8b5760008155600101610c77565b50505b505050565b815167ffffffffffffffff811115610cad57610cad610a57565b610cc181610cbb8454610bcf565b84610c44565b6020601f821160018114610cf55760008315610cdd5750848201515b600019600385901b1c1916600184901b178455610c8b565b600084815260208120601f198516915b82811015610d255787850151825560209485019460019092019101610d05565b5084821015610d435786840151600019600387901b60f8161c191681555b50505050600190811b01905550565b60008251610d64818460208701610934565b9190910192915050565b610d78818861099a565b60c060208201526000610d8e60c0830188610958565b610d9b60408401886109ae565b8281036060840152610dad8187610958565b6080840195909552505060a00152949350505050565b60008451610dd5818460208901610934565b919091019283525060f81b7fff0000000000000000000000000000000000000000000000000000000000000016602082015260210191905056fea264697066735822122010dcb25276c5989b515dcba7e3e61da983f620d459ca295d18af4dd5931bb9e164736f6c634300081c0033",
  "linkReferences": {},
  "deployedLinkReferences": {}
}