{
  "_format": "hh-sol-artifact-1",
  "contractName": "IPFSFileTracker",
  "sourceName": "contracts/IPFSFileTracker.sol",
  "abi": [
    {
      "inputs": [],
      "stateMutability": "nonpayable",
      "type": "constructor"
    },
    {
      "inputs": [],
      "name": "EmptyCID",
      "type": "error"
    },
    {
      "inputs": [],
      "name": "EmptyFileName",
      "type": "error"
    },
    {
      "inputs": [
        {
          "internalType": "string",
          "name": "cid",
          "type": "string"
        }
      ],
      "name": "FileReferenceAlreadyExists",
      "type": "error"
    },
    {
      "inputs": [
        {
          "internalType": "string",
          "name": "cid",
          "type": "string"
        }
      ],
      "name": "FileReferenceNotFound",
      "type": "error"
    },
    {
      "inputs": [
        {
          "internalType": "address",
          "name": "caller",
          "type": "address"
        }
      ],
      "name": "UnauthorizedAccess",
      "type": "error"
    },
    {
      "anonymous": false,
      "inputs": [
        {
          "indexed": false,
          "internalType": "enum IPFSFileTracker.Action",
          "name": "action",
          "type": "uint8"
        },
        {
          "indexed": false,
          "internalType": "string",
          "name": "cid",
          "type": "string"
        },
        {
          "indexed": false,
          "internalType": "enum IPFSFileTracker.FileType",
          "name": "fileType",
          "type": "uint8"
        },
        {
          "indexed": false,
          "internalType": "string",
          "name": "fileName",
          "type": "string"
        },
        {
          "indexed": false,
          "internalType": "uint256",
          "name": "timestamp",
          "type": "uint256"
        },
        {
          "indexed": false,
          "internalType": "bytes32",
          "name": "blockHash",
          "type": "bytes32"
        }
      ],
      "name": "FileReferenceAdded",
      "type": "event"
    },
    {
      "inputs": [
        {
          "internalType": "string",
          "name": "_cid",
          "type": "string"
        },
        {
          "internalType": "enum IPFSFileTracker.FileType",
          "name": "_fileType",
          "type": "uint8"
        },
        {
          "internalType": "string",
          "name": "_fileName",
          "type": "string"
        }
      ],
      "name": "addFileReference",
      "outputs": [],
      "stateMutability": "nonpayable",
      "type": "function"
    },
    {
      "inputs": [
        {
          "internalType": "string",
          "name": "_cid",
          "type": "string"
        }
      ],
      "name": "fileExists",
      "outputs": [
        {
          "internalType": "bool",
          "name": "",
          "type": "bool"
        }
      ],
      "stateMutability": "view",
      "type": "function"
    },
    {
      "inputs": [],
      "name": "getCurrentBlockHash",
      "outputs": [
        {
          "internalType": "bytes32",
          "name": "",
          "type": "bytes32"
        }
      ],
      "stateMutability": "view",
      "type": "function"
    },
    {
      "inputs": [
        {
          "internalType": "string",
          "name": "_cid",
          "type": "string"
        }
      ],
      "name": "getFileReference",
      "outputs": [
        {
          "components": [
            {
              "internalType": "string",
              "name": "cid",
              "type": "string"
            },
            {
              "internalType": "enum IPFSFileTracker.Action",
              "name": "action",
              "type": "uint8"
            },
            {
              "internalType": "enum IPFSFileTracker.FileType",
              "name": "fileType",
              "type": "uint8"
            },
            {
              "internalType": "string",
              "name": "fileName",
              "type": "string"
            },
            {
              "internalType": "uint256",
              "name": "timestamp",
              "type": "uint256"
            },
            {
              "internalType": "bytes32",
              "name": "blockHash",
              "type": "bytes32"
            },
            {
              "internalType": "bool",
              "name": "exists",
              "type": "bool"
            }
          ],
          "internalType": "struct IPFSFileTracker.FileReference",
          "name": "",
          "type": "tuple"
        }
      ],
      "stateMutability": "view",
      "type": "function"
    },
    {
      "inputs": [],
      "name": "getOwner",
      "outputs": [
        {
          "internalType": "address",
          "name": "",
          "type": "address"
        }
      ],
      "stateMutability": "view",
      "type": "function"
    }
  ],
  "bytecode": "0x60a0604052348015600f57600080fd5b5033608052608051610b5961003c6000396000818160c10152818161018601526104340152610b596000f3fe608060405234801561001057600080fd5b50600436106100675760003560e01c8063893d20e811610050578063893d20e8146100a75780639bccd6ad146100eb578063f7db05381461010e57600080fd5b80637ca3d4981461006c57806389356a8a14610087575b600080fd5b610074610123565b6040519081526020015b60405180910390f35b61009a61009536600461075c565b610136565b60405161007e9190610823565b60405173ffffffffffffffffffffffffffffffffffffffff7f000000000000000000000000000000000000000000000000000000000000000016815260200161007e565b6100fe6100f936600461075c565b6103ef565b604051901515815260200161007e565b61012161011c3660046108b0565b61041c565b005b600061013060014361092f565b40905090565b6040805160e0810182526060808252600060208301819052928201839052808201526080810182905260a0810182905260c08101919091523373ffffffffffffffffffffffffffffffffffffffff7f000000000000000000000000000000000000000000000000000000000000000016146101cb57604051633733be5960e21b81523360048201526024015b60405180910390fd5b600080836040516101dc9190610950565b90815260200160405180910390206040518060e00160405290816000820180546102059061096c565b80601f01602080910402602001604051908101604052809291908181526020018280546102319061096c565b801561027e5780601f106102535761010080835404028352916020019161027e565b820191906000526020600020905b81548152906001019060200180831161026157829003601f168201915b5050509183525050600182015460209091019060ff1660038111156102a5576102a56107e9565b60038111156102b6576102b66107e9565b81526020016001820160019054906101000a900460ff1660018111156102de576102de6107e9565b60018111156102ef576102ef6107e9565b81526020016002820180546103039061096c565b80601f016020809104026020016040519081016040528092919081815260200182805461032f9061096c565b801561037c5780601f106103515761010080835404028352916020019161037c565b820191906000526020600020905b81548152906001019060200180831161035f57829003601f168201915b5050509183525050600382015460208201526004820154604082015260059091015460ff16151560609091015260c08101519091506103e957826040517fc886fbf00000000000000000000000000000000000000000000000000000000081526004016101c291906109a6565b92915050565b600080826040516104009190610950565b9081526040519081900360200190206005015460ff1692915050565b3373ffffffffffffffffffffffffffffffffffffffff7f0000000000000000000000000000000000000000000000000000000000000000161461047457604051633733be5960e21b81523360048201526024016101c2565b82516000036104af576040517f63ee91d000000000000000000000000000000000000000000000000000000000815260040160405180910390fd5b80516000036104ea576040517ff921971d00000000000000000000000000000000000000000000000000000000815260040160405180910390fd5b6000836040516104fa9190610950565b9081526040519081900360200190206005015460ff161561054957826040517f72a8ed610000000000000000000000000000000000000000000000000000000081526004016101c291906109a6565b42600061055760014361092f565b6040805160e08101825287815260006020820152914092508101856001811115610583576105836107e9565b8152602001848152602001838152602001828152602001600115158152506000866040516105b19190610950565b908152604051908190036020019020815181906105ce9082610a0f565b50602082015160018083018054909160ff19909116908360038111156105f6576105f66107e9565b021790555060408201518160010160016101000a81548160ff02191690836001811115610625576106256107e9565b02179055506060820151600282019061063e9082610a0f565b506080820151600382015560a0820151600482015560c0909101516005909101805460ff19169115159190911790556040517fa7a3d4d0adbe88710217a03c05b4e2f6c95d9fe7f175abf44ba8df1d42ab10cb906106a89060009088908890889088908890610ace565b60405180910390a15050505050565b634e487b7160e01b600052604160045260246000fd5b600082601f8301126106de57600080fd5b813567ffffffffffffffff8111156106f8576106f86106b7565b604051601f8201601f19908116603f0116810167ffffffffffffffff81118282101715610727576107276106b7565b60405281815283820160200185101561073f57600080fd5b816020850160208301376000918101602001919091529392505050565b60006020828403121561076e57600080fd5b813567ffffffffffffffff81111561078557600080fd5b610791848285016106cd565b949350505050565b60005b838110156107b457818101518382015260200161079c565b50506000910152565b600081518084526107d5816020860160208601610799565b601f01601f19169290920160200192915050565b634e487b7160e01b600052602160045260246000fd5b6004811061080f5761080f6107e9565b9052565b6002811061080f5761080f6107e9565b602081526000825160e060208401526108406101008401826107bd565b9050602084015161085460408501826107ff565b5060408401516108676060850182610813565b506060840151838203601f1901608085015261088382826107bd565b915050608084015160a084015260a084015160c084015260c0840151151560e08401528091505092915050565b6000806000606084860312156108c557600080fd5b833567ffffffffffffffff8111156108dc57600080fd5b6108e8868287016106cd565b9350506020840135600281106108fd57600080fd5b9150604084013567ffffffffffffffff81111561091957600080fd5b610925868287016106cd565b9150509250925092565b818103818111156103e957634e487b7160e01b600052601160045260246000fd5b60008251610962818460208701610799565b9190910192915050565b600181811c9082168061098057607f821691505b6020821081036109a057634e487b7160e01b600052602260045260246000fd5b50919050565b6020815260006109b960208301846107bd565b9392505050565b601f821115610a0a57806000526020600020601f840160051c810160208510156109e75750805b601f840160051c820191505b81811015610a0757600081556001016109f3565b50505b505050565b815167ffffffffffffffff811115610a2957610a296106b7565b610a3d81610a37845461096c565b846109c0565b6020601f821160018114610a715760008315610a595750848201515b600019600385901b1c1916600184901b178455610a07565b600084815260208120601f198516915b82811015610aa15787850151825560209485019460019092019101610a81565b5084821015610abf5786840151600019600387901b60f8161c191681555b50505050600190811b01905550565b610ad881886107ff565b60c060208201526000610aee60c08301886107bd565b610afb6040840188610813565b8281036060840152610b0d81876107bd565b6080840195909552505060a0015294935050505056fea26469706673582212203698aeb3f80f48c3909d45fa8c476a32dfe4e6334b81e7ddf2953162a20f6e7b64736f6c634300081c0033",
  "linkReferences": {},
  "deployedLinkReferences": {}
}